:020000040800F2
:1000000048590020450200083F960008394800087A
:100010003D960008412C000805B3000800000000D0
:100020000000000000000000000000001F9D00080C
:1000300059300008000000009D990008339F000817
:100040005F0200085F0200085F0200085F0200080C
:100050005F0200085F0200085F0200085F020008FC
:100060005F0200085F0200085F020008ED2E000832
:100070005F0200085F0200085F0200085F020008DC
:100080005F0200085F0200085F0200085F020008CC
:100090005F0200085F0200085F0200089930000854
:1000A0005F0200085F0200085F0200085F020008AC
:1000B0006DA000085F020008D9A100085F020008D7
:1000C0005F0200085F0200085F0200085F0200088C
:1000D0005F02000869B100085F0200085F020008C3
:1000E0005D3000085F0200085F0200085F02000840
:1000F0005F0200085F0200085F0200085F0200085C
:100100005F0200085F020008F5A200085F02000815
:100110005F0200085F0200085F02000881A3000878
:100120005F0200085F0200085F0200085F0200082B
:1001300000F002F800F076F80AA090E8000C824483
:100140008344AAF10107DA4501D100F06BF8AFF260
:10015000090EBAE80F0013F0010F18BFFB1A43F0A5
:1001600001031847B8F30000D8F300000A444FF029
:10017000000C10F8013B13F0070408BF10F8014B06
:100180001D1108BF10F8015B641E05D010F8016B4B
:10019000641E01F8016BF9D113F0080F1EBF10F8AF
:1001A000014BAD1C0C1B09D16D1E58BF01F801CBD2
:1001B000FAD505E014F8016B01F8016B6D1EF9D555
:1001C0009142D6D37047000000230024002500266A
:1001D000103A28BF78C1FBD8520728BF30C148BFAA
:1001E0000B60704766290DF0A882642901F0AC818C
:1001F000752901F0A981782901F0E281632901F0D4
:10020000AC85732901F0B185002070471FB501F05E
:10021000C3FD0400002000210CF09EF9E0601FBD2A
:1002200010B510BD01F0BCFE1146FFF7EFFF0BF05B
:10023000F9F801F0DAFE03B4FFF7F2FF03BC0BF0AC
:100240007DF800000948804709480047FEE7FEE7BF
:10025000FEE7FEE7FEE7FEE7FEE7FEE7FEE7FEE776
:1002600004480549054A064B70470000359F0008C1
:10027000310100084853002048590020485500200B
:10028000485500202DE9F04F4FF0000C4FF00003CF
:1002900001EB9C5EBEF90250BEF900400EF5806E87
:1002A000BEF90290BEF900800EF5806EBEF90270B4
:1002B000BEF900600EF5806EBEF902B0BEF900A076
:1002C0000EF5806ED044D944A8EB4A0AA9EB4B0B3B
:1002D0004FEAA4044FEAA50504EBA60405EBA70525
:1002E000A4EB6606A5EB670704EBA80405EBA905DC
:1002F000A4EB6808A5EB690906EBAB06A7EBAA0718
:10030000A6EB6B0B07EB6A0A458020F8044B47808D
:1003100020F8046BA0F8029020F8048BA0F802A04B
:1003200020F804BB03F1010393FAA3FCB3F5807F2B
:10033000AED1A0EB82014FF0100312090FF234107E
:1003400000F1000006B403EB430C6144A2F58032D7
:1003500002EB8332B1F90250B1F90040A1EB030185
:10036000B0F902B0B0F900A000F10400A5EB040E52
:100370000EFB0BFC0AEB4B0E05FB0ACB04FB0ECA73
:10038000B1F90250B1F90040A1EB0301B0F90290BC
:10039000B0F9008000F10400A5EB040E0EFB09FC8F
:1003A00008EB490E05FB08C904FB0EC8B1F9025061
:1003B000B1F90040A1EB0301B0F90270B0F900609F
:1003C00000F10400A5EB040E0EFB07FC06EB470E44
:1003D00005FB06C704FB0EC6B1F90250B1F9004097
:1003E00001F10001D044D944A8EB4A0AA9EB4B0B18
:1003F0004FEAA4044FEAA50504EB264405EB274584
:10040000A4EBE636A5EBE73704EB284405EB2945DA
:10041000A4EBE838A5EBE93906EB2B46A7EB2A4716
:10042000A6EBEB3B07EBEA3A4D800C8019444F807A
:100430000E801944A1F80290A1F800801944A1F897
:1004400002A021F804BBB2F5803283DA03EB430C3F
:100450006144A2F101025FEA024E18BFA0EB0C005A
:100460007FF476AF06BC4FEA830392087FF46AAF4D
:10047000BDE8F08F00400000004000000040000098
:100480005DDD213BA3227E180000412D7EA5412D7C
:100490000000412D00C000405DDD82E75DDD213BB5
:1004A0007EA5412D004000000040000000400000FB
:1004B000AA2A94126B39460649327C0CA8118E2365
:1004C00049327C0CA3227E1821F77931AA2A941292
:1004D000A8118E235DDD213BA3227E180000412D53
:1004E00095C6B13F461A2B1E58EE3735BEB4C53EF1
:1004F000A8118E235DDD213B63A97138DF089A289E
:10050000B7CDC53E7EA5412D0000412D00C0004065
:1005100063A92B1E21F77931BEB4C53EBEB47C0C55
:1005200058EE373561AC213B95C6BAF9BAE571385A
:100530003BA737355DDD82E75DDD213B7EA5412DA3
:1005400021F766D756D53F3D3BA78E23A811C9CAD0
:10055000B7CDC53E61AC7E18AA2AC1C295C6B13FCF
:10056000BEB47C0C004000000040000000400000D1
:100570001E3BB504693E9201C83C2403EB35640977
:10058000C83C24036B3946066C30060E1E3BB5048E
:10059000EB356409AA2A94126B39460649327C0C61
:1005A000AE240917AF37D607882E8D0F7E1E5D1B30
:1005B000EB356409AA2A941224188C1F1E34F10A00
:1005C000B3269015A8118E2349327C0CA3227E18E5
:1005D000140B60276C30060E7E1E5D1B7104FB2A17
:1005E000882E8D0F461A2B1EC7FD5A2E9D2C1211D8
:1005F000FE15E72021F77931AA2A9412A8118E233B
:1006000087F05334B2281314480D202602EAE53649
:10061000B3269015DF089A289CE32B39AE240917DE
:100620007104FB2A5DDD213BA3227E180000412DD1
:100630004ED7C53C9320EF198FFB6C2F78D1153E18
:100640007E1E5D1B21F77931E2CB0F3F641CC61C77
:10065000B8F2683395C6B13F461A2B1E58EE3735AF
:1006600097C1FB3F24188C1F02EAE536F0BCEC3F33
:10067000FE15E720BAE57138A6B8853FD5133D22AF
:1006800082E1DB39BEB4C53EA8118E235DDD213B7E
:1006900040B1AF3D790FDA244DD9423C2EAE423CF9
:1006A000480D202656D53F3D8EAB823A140B60276D
:1006B00078D1153E63A97138DF089A28B7CDC53EB9
:1006C000B1A71236A906CE2915CA4F3F78A66833BE
:1006D0007104FB2A95C6B13FBCA576303902212CA6
:1006E00038C3EC3F7EA5412D0000412D00C00040E5
:1006F000BCA5CE29C7FD5A2EF0BCEC3F78A620261B
:100700008FFB6C2F09BAB13FB1A73D2257F9763064
:100710004DB74F3F63A92B1E21F77931BEB4C53EBB
:100720008EABEF19ECF474325EB2153E2EAE90151E
:10073000B8F268332DB03F3D40B1121187F0533409
:100740002EAE423CBEB47C0C58EE373561AC213B3A
:10075000A6B8D6072BEC1236C8AADB39F0BC2403A6
:1007600002EAE53663A9713897C16EFEDCE7B0375F
:1007700034A8E53695C6BAF9BAE571383BA73735DE
:10078000E2CB0FF59CE32B3978A6683378D173F070
:1007900082E1DB39EDA579314ED7EDEB6DDF823AA1
:1007A00099A56C2F5DDD82E75DDD213B7EA5412DA6
:1007B0009CE33AE352DBB63B99A5FB2A02EA19DF38
:1007C0004DD9423CEDA59A2887F026DB4ED7C53C93
:1007D00078A6202621F766D756D53F3D3BA78E2326
:1007E000C7FDDFD363D3AF3D34A8E720710494D0B5
:1007F00078D1153E63A92B1E140B8CCD94CF723E7D
:10080000C8AA5D1BA811C9CAB7CDC53E61AC7E1888
:10081000241850C8E2CB0F3F2EAE90157E1E25C681
:1008200015CA4F3F2DB09412AE244AC451C8853F1B
:100830005EB28D0FAA2AC1C295C6B13FBEB47C0C70
:100840006C308EC1E2C4D43F4DB76409EB35B1C002
:1008500038C3EC3F09BA46061E3B2CC097C1FB3F8C
:10086000F0BC2403004000000040000000400000F5
:10087000D03E2E019B3F6500363FC9009A3D5B028A
:10088000363FC900693E92015F3C8803D03E2E018D
:100890009A3D5B021E3BB504693E9201C83C2403AD
:1008A000D939E205023EF701F43BED038E380E071D
:1008B0009A3D5B021E3BB5043F373908313DC0020B
:1008C000463A7E05EB356409C83C24036B3946067D
:1008D00092348E0A5F3C88038E380E073433B70B90
:1008E000F43BED03AF37D607D231DF0C8A3B51041E
:1008F000CE369D086C30060E1E3BB504EB35640900
:10090000022F2B0FB23A1A0505352B0A932D5010E2
:10091000463A7E051E34F10A212C7311D939E205BD
:100920003433B70BAA2A94126B39460649327C0C31
:100930003129B413FD38AA065B31410DB327D21417
:100940008E380E076C30060E3226EE151F387207F1
:100950007B2FCA0EAE240917AF37D607882E8D0F0E
:10096000262321183F373908932D50109C21371921
:10097000CE369D089D2C12110E204B1A5D360109B2
:10098000A42BD3117E1E5D1BEB356409AA2A941299
:10099000EB1C6C1C7835C709AF295413561B791D05
:1009A00005352B0AB2281314BE19841E92348E0A00
:1009B000B327D21424188C1F1E34F10AB3269015C5
:1009C00088169120A933540BB1254C16EA149321B3
:1009D0003433B70BAE2409174A139222BF321A0CD4
:1009E000A923C417A8118E2349327C0CA3227E1898
:1009F00005108824D231DF0C9C213719610E7E2529
:100A00005B31410D9320EF19BB0C7126E430A40D2E
:100A1000891FA71A140B60276C30060E7E1E5D1B03
:100A20006D094C28F42F680E721D121CC40735295D
:100A30007B2FCA0E641CC61C1B061A2A022F2B0F02
:100A4000561B791D7104FB2A882E8D0F461A2B1E0A
:100A5000C702D82B0E2EEE0F3519DC1E1C01B22C4E
:100A6000932D501024188C1F72FF882D182DB11053
:100A700011173A20C7FD5A2E9D2C1211FE15E720A2
:100A80001DFC282F212C7311EA14932173FAF22FE5
:100A9000A42BD311D5133D22CAF8B830282B341219
:100AA000BF12E72221F77931AA2A9412A8118E23C6
:100AB00079F536322D2AF41291103524D2F3EF3223
:100AC000AF295413790FDA242CF2A3333129B4134C
:100AD000610E7E2587F05334B2281314480D20266A
:100AE000E3EEFF34332873142E0CC12641EDA535F7
:100AF000B327D214140B6027A1EB483633273115E6
:100B0000FA09FE2702EAE536B3269015DF089A288F
:100B100065E87E373226EE15C4073529CBE6123854
:100B2000B1254C16A906CE2932E5A1382F25AB16E2
:100B30008D05652A9CE32B39AE2409177104FB2A25
:100B400008E2B0392B24661755038F2B77E0303A33
:100B5000A923C4173902212CE9DEAB3A2623211838
:100B60001C01B22C5DDD213BA3227E180000412D2B
:100B7000D5DB923B1F22DB18E4FECF2D4FDAFD3B85
:100B80009C213719C7FD5A2ECDD8643C17219319E3
:100B9000ABFCE42E4ED7C53C9320EF198FFB6C2F96
:100BA000D3D5213D0E204B1A73FAF22F5CD4783D39
:100BB000891FA71A57F97630E8D2C93D041F021BD6
:100BC0003CF8F93078D1153E7E1E5D1B21F7793156
:100BD0000CD05C3EF81DB81B06F6F831A5CE9D3E44
:100BE000721D121CECF4743241CDD83EEB1C6C1C0F
:100BF000D2F3EF32E2CB0F3F641CC61CB8F268336D
:100C000088CA403FDD1B201D9FF1DF3332C96B3F97
:100C1000561B791D87F05334E1C7913FCE1AD31D7F
:100C20006FEFC63495C6B13F461A2B1E58EE3735C6
:100C30004EC5CC3FBE19841E41EDA5350CC4E13F25
:100C40003519DC1E2BEC1236CFC2F13FAD18341F24
:100C500016EB7D3697C1FB3F24188C1F02EAE53660
:100C600065C000409B17E31FEFE84B3738BFFF3FDD
:100C700011173A20DCE7B03711BEF83F88169120F3
:100C8000CBE61238F0BCEC3FFE15E720BAE5713830
:100C9000D4BBDB3F74153D21AAE4CF38BFBAC43FB3
:100CA000EA1493219CE32B39AFB9A73F5F14E821E5
:100CB0008EE28439A6B8853FD5133D2282E1DB3927
:100CC000A2B75D3F4A13922277E0303AA5B6303F93
:100CD000BF12E7226DDF823AAFB5FD3E34123B23EF
:100CE00064DED33ABEB4C53EA8118E235DDD213B40
:100CF000D5B3883E1D11E22357DC6D3BF2B2453E71
:100D00009110352452DBB63B15B2FC3D051088240A
:100D10004FDAFD3B40B1AF3D790FDA244DD9423C6B
:100D200071B05B3DED0E2C254DD8853CA9AF033D40
:100D3000610E7E254ED7C53CE8AEA53CD40DCF252F
:100D400051D6033D2EAE423C480D202656D53F3DA0
:100D50007BADDA3BBB0C71265CD4783DD0AC6D3BEF
:100D60002E0CC12663D3AF3D2BACFA3AA10B112751
:100D70006DD2E33D8EAB823A140B602778D1153EDD
:100D8000F8AA063A870AAF2785D0453E6AAA843971
:100D9000FA09FE2794CF723EE3A9FD386D094C286D
:100DA000A5CE9D3E63A97138DF089A28B7CDC53E10
:100DB000EBA8E1375208E728CCCCEB3E7BA84B37B9
:100DC000C4073529E2CB0F3F12A8B1363607812977
:100DD000FBCA303FB1A71236A906CE2915CA4F3F2C
:100DE00057A76E351B061A2A32C96B3F05A7C634B2
:100DF0008D05652A51C8853FBBA61934FF04B02A6A
:100E000072C79C3F78A668337104FB2A95C6B13F30
:100E10003EA6B232E303452BBAC5C43F0BA6F83158
:100E200055038F2BE2C4D43FE0A53931C702D82B3C
:100E30000CC4E13FBCA576303902212C38C3EC3F0D
:100E4000A1A5AF2FAA016A2C66C2F53F8DA5E42E9D
:100E50001C01B22C97C1FB3F81A5152E8E00FA2CE8
:100E6000CAC0FF3F7EA5412D0000412D00C00040BB
:100E700081A56A2C72FF882D38BFFF3F8DA58F2B6F
:100E8000E4FECF2D73BEFB3FA1A5B02A56FE152E62
:100E9000B0BDF53FBCA5CE29C7FD5A2EF0BCEC3F36
:100EA000E0A5E72839FD9F2E32BCE13F0BA6FE27C7
:100EB000ABFCE42E77BBD43F3EA611271DFC282FA8
:100EC000BFBAC43F78A620268FFB6C2F09BAB13F6A
:100ED000BBA62C2501FBAF2F56B99C3F05A7352497
:100EE00073FAF22FA6B8853F57A73B23E5F93430B4
:100EF000F8B76B3FB1A73D2257F976304DB74F3F5A
:100F000012A83D21CAF8B830A5B6303F7BA83A20D8
:100F10003CF8F93000B60F3FEBA8341FAEF739317B
:100F20005EB5EB3E63A92B1E21F77931BEB4C53EF9
:100F3000E3A9201D93F6B93122B49D3E6AAA121C82
:100F400006F6F83188B3723EF8AA021B79F53632FC
:100F5000F2B2453E8EABEF19ECF474325EB2153E40
:100F60002BACDB185FF4B232CDB1E33DD0ACC4178B
:100F7000D2F3EF3240B1AF3D7BADAB1645F32C332E
:100F8000B5B0783D2EAE9015B8F268332DB03F3D28
:100F9000E8AE73142CF2A333A9AF033DA9AF5413E9
:100FA0009FF1DF3328AFC53C71B0341213F119340F
:100FB000A9AE853C40B1121187F053342EAE423CAD
:100FC00015B2EE0FFBEF8D34B6ADFD3BF2B2CA0E9B
:100FD0006FEFC63441ADB63BD5B3A40DE3EEFF349D
:100FE000D0AC6D3BBEB47C0C58EE373561AC213BC8
:100FF000AFB5540BCCED6E35F6ABD33AA5B62B0A94
:1010000041EDA5358EAB823AA2B70109B6ECDC35CD
:1010100029AB303AA6B8D6072BEC1236C8AADB3972
:10102000AFB9AA06A1EB48366AAA8439BFBA7E05D1
:1010300016EB7D360FAA2B39D4BB51048CEAB1369E
:10104000B7A9CF38F0BC240302EAE53663A97138AA
:1010500011BEF70178E9183712A9123838BFC90054
:10106000EFE84B37C5A8B03765C09BFF65E87E3712
:101070007BA84B3797C16EFEDCE7B03734A8E53666
:10108000CFC240FD53E7E137F1A77D360CC413FC16
:10109000CBE61238B1A712364EC5E6FA42E6423820
:1010A00074A7A53595C6BAF9BAE571383BA73735A7
:1010B000E1C78EF832E5A13805A7C63432C963F717
:1010C000AAE4CF38D3A6533488CA39F623E4FD38CE
:1010D000A4A6DF33E2CB0FF59CE32B3978A6683367
:1010E00041CDE6F315E3583950A6EF32A5CEBFF255
:1010F0008EE284392CA674320CD098F108E2B03913
:101100000BA6F83178D173F082E1DB39EDA57931A6
:10111000E8D24FEFFCE0063AD3A5F9305CD42DEECF
:1011200077E0303ABCA57630D3D50CEDF2DF593AF2
:10113000A9A5F22F4ED7EDEB6DDF823A99A56C2F62
:10114000CDD8CFEAE9DEAB3A8DA5E42E4FDAB4E98B
:1011500064DED33A85A55A2ED5DB9AE8E1DDFA3A6A
:101160007FA5CF2D5DDD82E75DDD213B7EA5412D95
:10117000E9DE6DE6DADC473B7FA5B22C77E059E586
:1011800057DC6D3B85A5212C08E248E4D5DB923B7A
:101190008DA58F2B9CE33AE352DBB63B99A5FB2A46
:1011A00032E52DE2D1DADA3BA9A5652ACBE624E1C6
:1011B0004FDAFD3BBCA5CE2965E81DE0CED9203C29
:1011C000D3A5352902EA19DF4DD9423CEDA59A286D
:1011D000A1EB18DECDD8643C0BA6FE2741ED19DD4E
:1011E0004DD8853C2CA66027E3EE1EDCCDD7A53C70
:1011F00050A6C12687F026DB4ED7C53C78A6202610
:101200002CF231DACFD6E43CA4A67E25D2F33FD926
:1012100051D6033DD3A6DA2479F551D8D3D5213D53
:1012200005A7352421F766D756D53F3D3BA78E232A
:10123000CAF87FD6D8D45B3D74A7E72273FA9BD552
:101240005CD4783DB1A73D221DFCBBD4DFD3933DD8
:10125000F1A79321C7FDDFD363D3AF3D34A8E720C7
:1012600072FF06D3E8D2C93D7BA83A201C0131D2D7
:101270006DD2E33DC5A88C1FC70261D1F2D1FC3D00
:1012800012A9DC1E710494D078D1153E63A92B1EDF
:101290001B06CCCFFED02D3EB7A9791DC40707CFC2
:1012A00085D0453E0FAAC61C6D0947CE0CD05C3ECA
:1012B0006AAA121C140B8CCD94CF723EC8AA5D1B77
:1012C000BB0CD4CC1CCF883E29ABA71A610E21CC15
:1012D000A5CE9D3E8EABEF19051073CB2ECEB13E41
:1012E000F6AB3719A811C9CAB7CDC53E61AC7E1897
:1012F0004A1324CA41CDD83ED0ACC417EA1483C9DE
:10130000CCCCEB3E41AD09178816E8C857CCFD3E62
:10131000B6AD4C16241850C8E2CB0F3F2EAE901538
:10132000BE19BEC76ECB203FA9AED214561B31C723
:10133000FBCA303F28AF1314EB1CA8C688CA403F35
:10134000A9AF54137E1E25C615CA4F3F2DB0941267
:101350000E20A7C5A3C95D3FB5B0D3119C212DC5F3
:1013600032C96B3F40B112112623B9C4C1C8783FBE
:10137000CDB15010AE244AC451C8853F5EB28D0F26
:101380003226E0C3E1C7913FF2B2CA0EB3277BC356
:1013900072C79C3F88B3060E31291CC303C7A73F01
:1013A00022B4410DAA2AC1C295C6B13FBEB47C0C7D
:1013B000212C6DC227C6BB3F5EB5B70B932D1DC256
:1013C000BAC5C43F00B6F10A022FD3C14EC5CC3F07
:1013D000A5B62B0A6C308EC1E2C4D43F4DB7640968
:1013E000D2314FC176C4DB3FF8B79D08343315C105
:1013F0000CC4E13FA6B8D6079234E0C0A1C3E73FD2
:1014000056B90E07EB35B1C038C3EC3F09BA4606F2
:101410003F3788C0CFC2F13FBFBA7E058E3864C067
:1014200066C2F53F77BBB504D93945C0FEC1F83F68
:1014300032BCED031E3B2CC097C1FB3FF0BC240324
:101440005F3C19C030C1FD3FB0BD5B029A3D0BC08F
:10145000CAC0FF3F73BE9201D03E03C065C00040CA
:1014600038BFC900704700000FB4044910B503AA83
:10147000029800F07FFC10BC5DF814FB8400002093
:101480000FB41CB5074B06AA7B446946009005982B
:1014900000F041FC0020694600F050FC1CBC5DF8E7
:1014A00014FB0000B108000070B5044685690068AF
:1014B000C10601D5302600E02026C00707D070BD48
:1014C000D4E9012130469047206A401C20626D1EFD
:1014D000F6D570BD70B5044685690078C00707D1A0
:1014E00070BDD4E9012120209047206A401C206271
:1014F0006D1EF6D570BD70B50C460546012A05D0A7
:101500002878800600D5EA69002302E0012305E07F
:101510005B1C934202D2E05C0028F9D1A869E6186E
:10152000C01AA861286A184428622846FFF7BCFF41
:1015300004E0D5E9012114F8010B9047B442F8D337
:101540002846FFF7C7FF70BD2DE9F041064600248D
:1015500010687529314616A510D0AFF30080002819
:1015600002DA404213A507E031688A0701D512A5C7
:1015700002E0490704D511A5012401E0AFF3008082
:1015800000210A2206F1240709E0B0FBF2FCB0FBBF
:10159000F2F302FB1C00303078541846491C002836
:1015A000F3D123462A463046BDE8F04100F047B962
:1015B000000000002D0000002B00000020000000B3
:1015C00070B504460D4621461068AFF300802188AF
:1015D000090502D50F4A7A4402E00E4A7A440E32D7
:1015E000002104F1240305E000F00F060009965DD8
:1015F0005E54491C0028F7D120780023000704D549
:10160000702D02D009B1022311322046BDE870408E
:1016100000F015B942DB00002DE9F05F8946044671
:101620004FF0000ADFF874B1FB44C0F820A0204658
:10163000E1688847002874D0252806D0D4E9012124
:101640009047206A401C2062F1E700265F46204652
:10165000E16888472028054607DB312D05D2781937
:1016600010F8200C08B10643F1E7B00701D526F0C9
:101670000406C4F81CA00027C4F818A02A2D09D01D
:10168000284609F054FE38B304EB8708303DC8F80B
:10169000185019E059F8041B204604EB87029161A9
:1016A000E1688847012F054618D1E069002820DA53
:1016B00026F020061DE0D8F8180000EB800005EBAE
:1016C00040003038C8F818002046E16888470546D1
:1016D00009F02DFE0028EED1012F0AD02E2D08D1C1
:1016E0002046E16888477F1C0546022F46F0200609
:1016F000C4DBA069002803DA404246F00106A0617D
:10170000F00701D026F010066C2D0BD0682D09D003
:101710004C2D39D06A2D35D0742D35D07A2D33D05B
:1017200016E038E0E1682F4620468847B842054673
:1017300009D16C2F26D04FF48060E1680643204623
:101740008847054604E06C2F1AD04FF4807006439A
:101750000DB3A5F14100192802D8203546F40066E2
:101760004A462946204626604E46FEF73BFD80B19C
:1017700001280BD0F61D26F0070000F1080956E7F6
:101780004020E4E78020D8E70020D6E706F10409EE
:101790004DE7284652E7206ABDE8F09F18DB0000BD
:1017A0004FF0013C50F8042B51F8043B9A4221D1F0
:1017B000A2EB0C03934313EACC1317D150F8042B7C
:1017C00051F8043B9A4215D1A2EB0C03934313EA60
:1017D000CC130BD150F8042B51F8043B9A4209D199
:1017E000A2EB0C03934313EACC13DBD04FF00000C1
:1017F000704700BFD01A01BAB1FA81F101F01801A7
:1018000022FA01F0CB40C1F12001DBB2C0B2C01A14
:101810002CFA01F3D11A914311EAC311E6D17047B2
:10182000704770477047704710B500F0B9FA00680C
:1018300010BD10B5044600F0B3FA046010BD2DE9E8
:10184000F0470D4699469246044600F12408016887
:10185000880604D5E06921F01001216000E0012034
:10186000A84201DD471B00E00027A1697A1902EBBD
:101870000900081AA0612078C00602D42046FFF7AC
:1018800013FE002608E0D4E901211AF8060090476B
:10189000206A401C761C20624E45F4DB2078C0068E
:1018A0000AD52046FFF700FE06E0D4E901213020EA
:1018B0009047206A401C2062381EA7F10107F4DC23
:1018C00007E0D4E9012118F805009047206A401C80
:1018D0002062281EA5F10105F3DC2046FFF7FAFD82
:1018E0002078000602D50220BDE8F0870120FBE742
:1018F00070472DE9FF4F0C461E464FF0FF378BB067
:10190000D2E90001DDF860800A908A46C1F30A55E9
:1019100005B93D46002108464FF00000BAF1000F1E
:1019200000F4400005DA00EB80004FF4400101EACA
:1019300050004FEA9059B9F1010F00DDB9460A98FD
:1019400050EA4A000ED044F61050A5F2FF35454348
:101950002F14B8F1000F1ED07542291E1EDDC9F1EB
:1019600000021CE0B8F1010F4FF0000001D030215F
:1019700003E0F24305E02154401CB042FBDB30465B
:101980000022002121540B99C1F80880C1E90020F0
:101990000FB0BDE8F08FBD1B6D1CDEE74A4600DAD4
:1019A000694206A800F086FA06AB93E8070003AB8D
:1019B00083E8070050460A9900F01DFB8DE80700F8
:1019C000A0F500501F3800900398002D09DD42F269
:1019D0001F014A46084403A90390684600F07CFDB5
:1019E00008E0A0F500504A461F3803A90390684656
:1019F00000F086FD8DE807000004000C03D04FF0D6
:101A0000FF30410800E01046B8F1000F03D000227B
:101A1000009215461EE0751E05D400F0C5F930325F
:101A200062556D1EF9D5B3460122084302D000224B
:101A30007F1C04E02078302801D100227F1E002A7C
:101A4000099786D01DE0112D07DA00F0ADF930328C
:101A500062556D1C50EA0102F5D1084302D000988E
:101A6000C8B10EE00021681E05E0235C625C63548F
:101A70002254401E491C8142F7DBAB46A81B401E86
:101A80000990002004F80B000B98099AC0F8088010
:101A9000C0E9002B7CE711264FF0000859E72DE93B
:101AA000F04F88460446D21D22F0070191B0D1E9DB
:101AB0000001CDE90A0109F026FC02460B98C00F8F
:101AC00001D02D2007E02068810701D52B2002E0FE
:101AD000202101EAC000032A099001D0072A05DB72
:101AE00003464146204600F0A5F90BE12078800628
:101AF00001D5E06900E00620B8F1650F814606D007
:101B0000B8F1660F18D0B8F1670F70D131E000203E
:101B1000B9F1110F009001DB112301E009F101037C
:101B20000AAA01A90CA8FFF7E4FEDDE90C70002663
:101B300009F10105834647E001204B4600904FF034
:101B400000470AAA01A90CA8FFF7D3FEDDE90DB0F2
:101B50000C995D46002610B909F101000D18B9EB8A
:101B6000050003D4C0F1FF3609F10105A5EB09001A
:101B70002BE0B9F1010F01DA4FF001090020B9F1B2
:101B8000110F0090484601DD112300E003460AAA28
:101B900001A90CA8FFF7ADFEDDE90C704D4600264B
:101BA0008346207800070AD4AB4500DA5D4601A8D9
:101BB000012D04DD411911F8011C302907D04F45D2
:101BC00002DA17F1040F04DA012082460FE06D1EDD
:101BD000EEE7002F02DCED1B3E4403E0781CA84238
:101BE00000DD7D1CB81B00F1010A4FF00047207892
:101BF000000703D4AA4501DB4FF0FF3A0021B7F1FB
:101C0000004F0DF143088DF8431024D002202B2300
:101C1000002F01DA7F422D230A21021EA0F10100CC
:101C200000DC5FB197FBF1FC97FBF1F201FB1C7C40
:101C300017460CF1300C08F801CDEEE7A8F10100D1
:101C400003702188090501D5452100E06521A0F137
:101C5000010800F8011C09980FA9A1EB0807FF1D56
:101C600000B10120411901EBEA70A1693844081A5A
:101C7000401EA0612078C00602D42046FFF714FC65
:101C8000099828B1D4E901219047206A401C2062BC
:101C90002078C00622D52046FFF706FC1EE0002E65
:101CA00004DBB34502DD01A8805D00E03020D4E90B
:101CB00001219047206A401C2062761CAAF1010095
:101CC0005FEA000A0AD100F067F8C0680168405C6A
:101CD000D4E901219047206A401C2062281EA5F10A
:101CE0000105DCDC07E0D4E9012118F8010B90477D
:101CF000206A401C2062381EA7F10107F3DC204651
:101D0000FFF7E8FB032011B043E6000001694A1C1D
:101D100002610878704700B58FB0CDE9013100212C
:101D2000059105497944CDE9031011466846FFF74E
:101D300073FC0FB000BD0000E5FFFFFF0A6802F86A
:101D4000010B0A60704710B5436913B1AFF300800F
:101D500001E0FFF7D0FB012010BD127800F1240153
:101D60000A7000224A700122EDE711684FF0FF323D
:101D7000E9E70000074B70B50D467B44FFF7CBFF4A
:101D80000446284600F004F910B14FF0FF3070BD52
:101D9000204670BD8F960000004870470453002015
:101DA00000487047E452002030B5B0F10A024FEA13
:101DB000900E71F100034EEA817EB0EB0E0061EBF4
:101DC00091014FEA101E4EEA017E10EB0E0041EB2E
:101DD00011114FEA102E4EEA016E10EB0E0041EB8E
:101DE00011214FEA104E4EEA014E10EB0E0041EB6E
:101DF0001141401841F100014FEAD00040EA417022
:101E00004FEAD10110EB80054FEA810444EA907457
:101E100044EB01046D1944EB0404521BA3414FF041
:101E2000000348BF0A3200D530BD401C41F100011B
:101E300030BD00002DE9F0411F460446032601682D
:101E4000072A01F4006004DB08B116A505E016A519
:101E500003E008B115A500E015A521F010002060F1
:101E6000A069C01EA0610FB1401EA0612046FFF70F
:101E70001BFB4FB1D4E9012138469047206A401C32
:101E80002062C01C206206E0206AFAE7D4E9012142
:101E900015F8010B9047761EF8D22046FFF71AFB83
:101EA000BDE8F0814E414E006E616E00494E460025
:101EB000696E66002DE9F047814616468AB03348C0
:101EC00078440DC88DE80D0030487844801C03AC80
:101ED0000DC884E80D0041F69B300844372190FB83
:101EE000F1F290FBF1F5A5F1800501FB12041B3C1A
:101EF00002D56442012000E00020DFF890A0804677
:101F00000027FA44AAF1BE0A0DE0E00709D03246E4
:101F1000684607EB47010AEB810100F0F1FA8DE812
:101F2000070064107F1C002CEFD1184F7F44AC3F9A
:101F300018E0E80714D007EB04100DF1180A90E838
:101F40000E008AE80E00C068F04201D1981908908E
:101F5000324606A903A800F0D3FA03AB83E80700D2
:101F60006D10641C002DE4D132466946B8F1000FB3
:101F700003A802D000F0B0FA01E000F0C1FAC9E90C
:101F80000001C9F808200AB0BDE8F08710D30000AE
:101F9000007B00F08000704700487047E45200204A
:101FA0007546FFF7F9FFAE4605006946534620F037
:101FB0000700854618B020B5FEF752F9BDE820406D
:101FC0004FF000064FF000074FF000084FF0000BF5
:101FD00021F00701AC46ACE8C009ACE8C009ACE8A8
:101FE000C009ACE8C0098D4670470446AFF30080D5
:101FF0002046FEF720F95FEA400C08BF91F0000F81
:102000004FEA8C234FEAC12243EA51514FEA1C5058
:1020100018BF00F5F0404FEA300018BF41F0004112
:102020005FEA6C5C00F02980BCF1FF3F08BF40F024
:1020300080407047130C06BF12044FF0100C4FF095
:10204000000C130E04BF12020CF1080C130F04BF96
:1020500012010CF1040C930F04BF92000CF1020C5E
:10206000D30F04BF52000CF1010C11464FF00002D7
:10207000A0F11F00A0EB0C00704711F0004F08BF4B
:10208000704731F000413FF4D5AF0B0C06BF090497
:102090004FF0100C4FF0000C0B0E04BF09020CF1B6
:1020A000080C0B0F04BF09010CF1040C8B0F04BFCB
:1020B00089000CF1020CCB0F04BF49000CF1010C9C
:1020C000CCF12003A0EB0C0022FA03F302FA0CF28D
:1020D00041EA030100F10100704720F07F4C80EAE3
:1020E000030023F07F47ACEB070303F57C5300F0BC
:1020F000004003F1FF032DE980494FEA154B09B475
:102100004FEA144325EA0B4E24EA03480FF2042653
:1021100006EB132749083E785FEA320203FB0667A5
:10212000C7F5000707FB06F64FEA54374FEAD646D5
:1021300006F1020607FB066CCCF1005C4FEA1C4777
:102140002CEA074C07FB06F40CFB06F504EB1546DE
:102150004FEA961634BF00204FF000404FEAD137C7
:1021600006FB07FC4FEA1C4C0CFB0BF7D21B03FBD6
:102170000CF761EB07010CFB0EF7B0EB074072EBBD
:1021800017420CFB08F734BFA2EB0742B2EB074241
:1021900061EB17414FEA0C444FEA910706FB07FC3D
:1021A0004FEA1C4C0CFB0BF7B0EBC74072EB5732FD
:1021B00003FB0CF734BFA2EBC742B2EBC74261EBA3
:1021C00057310CFB0EF7B0EBC70072EB57720CFBEC
:1021D00008F734BFA2EBC702B2EBC70261EB57713D
:1021E000039F4FEA816141EA921104EBCC044FEA6C
:1021F000D1374FEA826206FB07FC42EA90124FEAAF
:1022000080604FEA1C4C0CFB0BF7D21B03FB0CF756
:1022100061EB07010CFB0EF7B0EB074072EB1742C6
:102220000CFB08F734BFA2EB0742B2EB074261EBAD
:1022300017414FEA8C554FEA910704EB9C2406FBAB
:1022400007FC4FEA1C4C0CFB0BF7B0EBC74072EBE2
:10225000573203FB0CF734BFA2EBC742B2EBC742C5
:1022600061EB57310CFB0EF7B0EBC70072EB577206
:102270000CFB08F734BFA2EBC702B2EBC70261EB5D
:10228000577115EB4C254FEA816141EA92114FEAF3
:1022900082624FEAD13742EA901206FB07FC44F112
:1022A00000044FEA80604FEA1C4C0CFB0BF7D21B7A
:1022B00003FB0CF761EB07010CFB0EF7B0EB0740DB
:1022C00072EB17420CFB08F734BFA2EB0742B2EBEC
:1022D000074261EB174115EB1C154FEA813141EACA
:1022E00092414FEA823242EA90424FEA80304FEA0E
:1022F0000C7644F1000448EA03434EEA0B484FF0E1
:10230000000EB2EB080C71EB030724BF624639469E
:102310004EEB0E0E4FF0000B0018524149414BEBB3
:102320000B0BB2EB080C71EB03077BF1000B24BF26
:10233000624639464EEB0E0E4FF0000B001852412C
:1023400049414BEB0B0BB2EB080C71EB03077BF134
:10235000000B24BF624639464EEB0E0E51EA0207CF
:1023600018BF46F0010616EB0E7655F1000254F147
:10237000000103D5BDE88901BDE80088BDE88901F9
:10238000BDE80048B619524141EB0101A3F1010338
:10239000704780807F7E7D7C7B7A797877767675D2
:1023A0007473727171706F6E6E6D6C6C6B6A6A694A
:1023B0006868676666656464636362616160605FE4
:1023C0005F5E5E5D5D5C5C5B5B5A5A59595858575D
:1023D00057565655555554545353525252515150C5
:1023E00050504F4F4F4E4E4D4D4D4C4C4C4B4B4B18
:1023F0004A4A4A494949484848474747474646465E
:102400004545454444444443434343424242424198
:102410004141002B26D4770021D01CB54FEA370765
:1024200003B44FF010004FF010014FF000000FBC4C
:10243000BDE810400BF1010BBBF1010F08BF5FEAD3
:10244000170722BF12F1010211F101014FF0004103
:1024500043F1000300F0004043EA00007047F9D365
:102460005708DAE746EA064613F1400F4FEA1646E8
:102470001FDD13F1200FDFBF16430A460021203372
:102480005B42C8D0C3F1200746EA064602FA07F7C6
:102490004FEA164646EA0706C3F1200722FA03F27E
:1024A00001FA07F721FA03F14FF0000342EA0702AD
:1024B000B1E746EA020646EA06464FEA164646EA0B
:1024C0000106BCBF46EA0646360C4FF000034FF04B
:1024D00000024FF000019EE72DE9C048934630B45A
:1024E00091E8380007C831EA400C48BF34EA430C91
:1024F00003D5FFF7F2FDFFF78CFFF0BCBDE80088C5
:102500002DE9C048934630B491E8380007C810F070
:10251000804F08BF13F0804F03D100F005F8FFF79C
:1025200078FFF0BCBDE8008820F07F4780EA030018
:1025300023F07F4C07EB0C03A3F57C5300F0004025
:10254000A3F1FE0392F0000F00F0B38095F0000FAE
:1025500000F077802DE901494FEA11404FEA144617
:1025600021EA004800FB06FC24EA064708FB06F6C1
:1025700007FB08F800FB07F718EB06484CEB164C76
:102580004FEA124B18EB07484FEA15464CEB174041
:1025900022EA0B4E0BFB06FC25EA06470EFB06F66D
:1025A00007FB0EFE0BFB07F71EEB064E4CEB164C23
:1025B0004FF000061EEB074E4CEB174B18EB0B08C9
:1025C00040F1000018EB0E0B58EB000840F1000042
:1025D0008F1A4FF000013CBFC943661B14BFB5EB17
:1025E000040C00213CBFC943F61B4FEA17444EEAD6
:1025F0008E0E27EA04454FEA1C4704FB07622CEACB
:10260000074C05FB07F70CFB05F604FB0CFC16EB6F
:10261000074642EB174216EB0C4642EB1C421BEB03
:10262000060658EB0202414146EA9E0601D5BDE886
:102630000189B619524141EB0101A3F10103BDE843
:1026400001894FEA14454FEA114724EA054621EA79
:10265000074C05FB07F406FB07F70CFB06F105FB2F
:102660000CFC11EB074144EB17444FEA124711EB06
:102670000C4144EB1C4422EA074C05FB07F206FB25
:1026800007F70CFB06F605FB0CFC16EB074642EBC6
:10269000174216EB0C4642EB1C456A1854F1000138
:1026A00048BF7047B619524141EB0101A3F1010344
:1026B000704795F0000F37D04FEA11424FEA1447A8
:1026C00021EA024624EA074C02FB07F106FB07F762
:1026D0000CFB06F402FB0CFC14EB074441EB174126
:1026E0004FEA154714EB0C4441EB1C4125EA074C1B
:1026F00002FB07F506FB07F70CFB06F602FB0CFCDA
:1027000016EB074645EB174516EB0C4645EB1C420E
:10271000121951F1000148BF7047B619524141EBFF
:102720000101A3F1010370474FEA14454FEA114735
:1027300024EA054621EA074C05FB07F106FB07F7EB
:102740000CFB06F24FF0000605FB0CFC12EB0742F7
:1027500041EB174112EB0C4251EB1C4148BF704753
:10276000921841EB0101A3F1010370473EB50D46FC
:1027700004460121022007F04DF9ADF80440002085
:10278000ADF80050084CADF80600ADF802006946FF
:10279000204607F069FF2021204607F02BFF01218A
:1027A000204607F050FE3EBD0004004010B5044630
:1027B0000B491038884205D209480E30B0FBF4F0BE
:1027C00080B200E001200749401E80B2064A08801E
:1027D00047211180FFF7CAFF0448446010BD000084
:1027E00032420F0012000020140000208802002056
:1027F0000029816802D041F0010101E021F00101CE
:10280000816070470029816802D041F4807101E045
:1028100021F48071816070470D4910B5884202D162
:10282000012144150AE00B49884202D10121041517
:1028300004E0094988420AD10121CC03204607F06F
:1028400001F92046BDE81040002107F0FBB810BD9B
:102850000024014000280140003C0140002981681B
:1028600002D041F4801101E021F4801181607047B1
:102870000249486840084860FFF798BF8802002076
:102880000249486840004860FFF790BF8802002076
:10289000014600208968490700D50120704701469C
:1028A00000208968090700D50120704710B54268EB
:1028B0000E4B0C791A400B6842EA04221343436022
:1028C00082680B4B1A40D1E9024323434C7942EA18
:1028D000440213438360C26A097C22F47002491ED9
:1028E000C9B242EA0151C16210BD0000FFFEF0FF13
:1028F000FDF7F1FF70B5072609290AD9C568A1F1CE
:102900000A0404EB4404A640B543A3401D43C5603C
:1029100007E0056901EB4104A640B543A3401D4310
:1029200005611F23072A09D2446B521E02EB820263
:1029300093409C4391400C43446370BD0D2A09D2DF
:10294000046BD21F02EB820293409C4391400C43E4
:10295000046370BDC46A0D3A02EB820293409C434B
:1029600091400C43C46270BD816841F008018160F0
:102970007047816841F0040181607047F0B4154DE3
:102980001249134A2B88002430B10126012809D0AE
:1029900002280DD0032811D0C1F8A041C2F8884107
:1029A000184610E0C1F8A061C2F8884168880AE0C2
:1029B000C1F8A041C2F88861A88804E0C1F8A0610C
:1029C000C2F88861E888F0BC00F028BB0000214212
:1029D000008022420800002001F050BF2DE9F041A4
:1029E0000D460146002004464E1908E00702301B40
:1029F000401E80B200F007F8641C3844E4B2AC42D8
:102A0000F4D3BDE8F08110B5044601F0DBFF200AE5
:102A1000A02101EB4000C0B201F0A4FF02F014F8C5
:102A2000E0B201F09FFF02F00FF801F0CBFFA12010
:102A300001F098FF02F008F8002001F05DFF044665
:102A400001F0E0FF204610BD2DE9F04116460D468D
:102A50000746002409E0E00025FA00F0C1B2381969
:102A600080B200F006F8641CE4B2B442F3D3BDE8CF
:102A7000F08170B50D46044601F0A4FF200AA021A4
:102A800001EB4000C0B201F06DFF01F0DDFFE0B2EC
:102A900001F068FF01F0D8FF284601F063FF01F064
:102AA000D3FF01F0AFFFBDE870400A2008F066BC1C
:102AB00070B592B001214FF4017006F0B7FF01210B
:102AC000084606F09BFF4FF4004006F08DFF022001
:102AD000ADF8440000248DF8474011A9364800F0B5
:102AE00081FC364800903648CDE901048021CDE9CB
:102AF00004414FF480600390202108918110CDE9BA
:102B00000610C000CDE909042E4D6946284600F0A4
:102B100035FA0121284600F00DFA0121284600F07F
:102B200009FA01220221284600F020FA234D4C3DEB
:102B30002846FFF771FE8DF830400B948DF8314038
:102B40004FF40020CDE90D0401268DF83C600BA95F
:102B50002846FFF7ABFE01212846FFF77FFE012242
:102B6000002311462846FFF7C5FE01212846FFF73E
:102B700049FE01212846FFF73BFE2846FFF7F4FEF9
:102B80002846FFF78CFE0028FAD12846FFF7F1FE11
:102B90002846FFF77DFE0028FAD10B208DF8400073
:102BA0008DF841408DF842408DF8436010A806F042
:102BB00047FD12B070BD0000000801404C240140E8
:102BC000A40200200800024010B5012002F05AF8CB
:102BD0001649174C4FF6FF70088060894FF49B72BE
:102BE000A0F6FF704042C0F30F1319460A2002F00E
:102BF000E3F8E089A189400800EB510060810D48AD
:102C00000D4A0E49007868B101280BD0022801D086
:102C100003280AD11068C82250430860BDE810405C
:102C2000FFF7C4BD10680001F7E710BD2C000020BD
:102C30008800002010000020040000208C020020EA
:102C4000FEE7000070B50D4C0025C4F880510C481B
:102C5000016821F470410160016841F44051016054
:102C6000C4F88C510A2004F5C07408F0A1FB0120BF
:102C700020600A2008F09CFB256070BD0000224205
:102C8000001001400C48816941F0100181610B483E
:102C900001684FF20F0291430160016843F20302A1
:102CA00011430160C16841F00201C160C16841F097
:102CB0000801C16070470000001002400010014090
:102CC00070B50D4C0026C4F880610C48016821F4F1
:102CD00070410160016841F4405101600125C4F870
:102CE0008C510A2004F5C07408F062FB25600A20AC
:102CF00008F05EFB266070BD00002242001001401B
:102D00002DE9F047814616480024016821F47041FE
:102D10000160016841F400410160124E25462746DA
:102D20004FF00108C6F880711E2008F041FBC6F87C
:102D300080816006040ED6F80C0108B1641CE4B270
:102D40006D1CEDB2082DEDD3B9F1000F04D0FFF7E3
:102D500079FF2046BDE8F087FFF7B2FFF9E70000F2
:102D600000100140000022422DE9F04105461248C2
:102D7000016821F470410160016841F44051016033
:102D80000E4E0027C6F880713C464FF00108E80956
:102D9000C6F88C016806050EC6F880810A2008F086
:102DA00007FBC6F880710A2008F002FB641CE4B23D
:102DB000082CECD3BDE8F081001001400000224255
:102DC00070B50D48016821F470410160016841F45B
:102DD00040510160094C0120C4F88C01C4F8800105
:102DE0000A2004F5C07408F0E3FA0025E5600A2023
:102DF00008F0DEFA256070BD00100140000022429C
:102E000070B50D48016821F470410160016841F41A
:102E100040510160094C0020C4F88001C4F88C01C5
:102E20000A2004F5C07408F0C3FA012525600A20C1
:102E300008F0BEFAE56070BD0010014000002242BB
:102E400070B513480024016821F4704101600168E5
:102E500041F4004101600F4D0126C5F88C613046F8
:102E600008F0A6FAC5F88061012008F0A1FA07E091
:102E7000641CE4B2FA2C03D9FFF7C2FF012070BD35
:102E8000D5F80C010028F3D1C5F8800170BD000011
:102E90000010014000002242044B012282401868C9
:102EA00009B1104300E0904318607047007400407F
:102EB00030B5084C236840F6FE7282409343D1E956
:102EC00000252A43D1E902510D432A4382401A4387
:102ED000226030BD00740040034A08B51044083039
:102EE0000090016008BD00000074004010B5022091
:102EF00000F02CF800280BD0022000F00FF8054954
:102F0000FF200870BDE810400021034807F09BBA7D
:102F100010BD00008802002000040040C10002D55E
:102F20000249086070470249486070470404024043
:102F3000000002400029016802D041F0010102E0D6
:102F40004FF6FE72114001607047000002460020FB
:102F5000D10001D5034900E003490968114200D0BE
:102F6000012070470004024000000240002A02686D
:102F700001D00A4300E08A430260704730B502681E
:102F800047F6F0739A430C6A8B682343D1E90445F2
:102F90002C4323438C692343CC6923434C6A23434A
:102FA0008C6A234313430360CA6842600A688260E4
:102FB0004968C16030BD000030B585B001210420F2
:102FC00006F034FD0121480706F024FD1020ADF87D
:102FD000100000248DF8134003200F4D8DF81200CF
:102FE00004A9284600F0FEF91021284600F07DFAD9
:102FF0000220CDE902400094694601940020FFF7C9
:1030000057FF01210020FFF747FF00210846FFF787
:1030100063FF05B030BD00000008014010B50AF0A4
:10302000AFF90B490AF096F80C210AF0E8FB09F019
:10303000FDFF4FF06632074B09F086FB09F0A2FA5C
:103040000AF066F981B2BDE810400020FFF744BFE6
:1030500000007A4466660A407047000010B51420EC
:1030600008F08CF94FF400442146054800F034FA8A
:1030700004A0FEF7F9F92046BDE8104000F022B8A0
:10308000000801406B6579312073746174655F6677
:103090006C61670A0000000010B5142008F06EF99A
:1030A0002021054800F018FA04A0FEF7DDF9BDE87C
:1030B0001040202000F006B8001001406B65793008
:1030C0000A00000001490860704700001404014034
:1030D0002DE9F041804613480C460025006809F0B0
:1030E000B8FC06460F46404609F0B3FC09220AF038
:1030F00058FB32463B4609F027FB09F07DFC0146B0
:103100002144001B8AB280B2074906E051F82040F2
:10311000AC4200D92546401C80B29042F6D92846E0
:10312000BDE8F0818C020020C03200207CB5012176
:10313000102006F07BFC4FF40054ADF80440102042
:103140008DF8070003202D4D8DF8060001A92846B3
:1031500000F048F92146284600F0C7F90221ADF8F1
:10316000041048218DF8071001A9284600F03AF90B
:103170000221284600F0B9F9FFF784FD204D002414
:10318000C5F8B441142005F5DA7508F0F7F8012008
:103190002860322008F0F2F88DF8004001226946DC
:1031A000002000F0FBF801226946A42000F0F6F8A8
:1031B00016208DF8000001226946802000F0EEF80C
:1031C0000C208DF8000001226946882000F0E6F806
:1031D00002226946A12000F01BF89DF8000030286B
:1031E00003D19DF80100032801D001207CBD43F2EA
:1031F000030104A0FEF738F900207CBD0010014057
:10320000000022424354502049443A25780D0A00D8
:103210002DE9F04115460F460446FFF7D1FD702019
:10322000FFF7A2FDFFF70CFEE0B2FFF79DFDFFF7F1
:1032300007FEFFF7C5FD7120FFF796FDFFF700FEC3
:1032400000246E1E09E0B44201D0012000E00020FD
:10325000FFF756FD3855641CE4B2AC42F3D3BDE829
:10326000F041FFF7CDBD00002DE9F143484F0024A8
:103270004FF00A09387882B0401CC0B2B0FBF9F2B6
:1032800009FB1201434DA046387009B10A2863D2E8
:10329000012202A90220FFF7BBFF9DF808000107E9
:1032A0005AD000F00F00062856D2FF218140C843B3
:1032B00040F0C00085F820004FF00108002695F886
:1032C000201008FA04F0014239D03348042269463C
:1032D00030F81400FFF79CFF95F830009DF80010BF
:1032E000C0079DF8010001F00F010ED000EB012195
:1032F00005EB4400C1829DF802209DF8031002F006
:103300000F0201EB022181810FE000EB0120C0F5EB
:10331000F07105EB440081819DF802209DF80310B7
:1033200002F00F0201EB0221C1829DF8000008218A
:10333000B1EB101F03D005EB4400C6828681641CEC
:10334000E4B2052CBBD3A9894FF0010819B9E88A6A
:1033500008B98DF808603E709DF80800C0060ED1CF
:1033600095F82000010602D520F0800005E04FF618
:10337000FF71A981E98200F0E00085F8200038782B
:10338000F02801D987F800904046BDE8FE83000090
:10339000710000203C00002012F100082DE9F041EE
:1033A00015460E4604460027FFF70AFD7020FFF77A
:1033B000DBFCFFF745FDE0B2FFF7D6FCFFF740FD71
:1033C000002408E0305DFFF7CFFCFFF739FD070070
:1033D00003D1641CE4B2AC42F4D3FFF711FD3846CC
:1033E000BDE8F081F0B5CC78002204F00F03E406CC
:1033F00001D58C7823430C784FF00F0C14F0FF0F9D
:103400004FF0010E1BD005680E880EFA02F426401C
:10341000A64210D196000CFA06F725EA070703FA30
:1034200006F5CE783D43282E02D0482E02D002E089
:10343000446100E00461521C082AE5D305600A8853
:10344000FF2A1CD94468002202F108060EFA06F58C
:103450000E882E40AE420ED196000CFA06F7BC4301
:1034600003FA06F7CE783C43282E00D14561CE788A
:10347000482E00D10561521C082AE5D34460F0BDF6
:10348000F0B5144C002801DAE36900E06368450DEB
:103490002E0185B2C0F30157B540C0F30342032F9C
:1034A00005D0C6020AD503269640B34307E023F0B1
:1034B0007062636823F07063636002E0AB4343F0C3
:1034C000706201B12A43002801DAE261F0BD626056
:1034D000F0BD0000000001400246002092680A4250
:1034E00000D00120704741617047016170470000C2
:1034F000FEB50121102006F099FA42F20200ADF863
:10350000080010208DF80B000320334E8DF80A00C0
:1035100002A93046FFF766FF02213046FFF7E5FFBC
:1035200071143046FFF7E1FFFFF7ACFB2B4D002491
:10353000C5F8B4410A2005F5DA7507F01FFF012030
:1035400028600A2007F01AFF0225ADF8085028204D
:103550008DF80B0002A93046FFF744FF02213046E8
:10356000FFF7C1FF642007F009FF0422694648F213
:10357000401000F049F88DF80440694618A0FDF7A6
:1035800073FF1AA16846FEF70BF908B10120FEBDD2
:103590008DF8005048F2400501226946284600F0A7
:1035A00025F901226946E81D00F02EF89DF800106B
:1035B000602905D20FA0FDF757FF012000F0F0F8B9
:1035C0000A2007F0DBFE8DF80040012269462846FC
:1035D00000F00CF90020FEBD001001400000224266
:1035E0004354502049443A25730D0A003931343789
:1035F0000000000044656661756C74205665723A7F
:1036000025640D0A000000002DE9F04115460F4623
:103610000446FFF7D5FB2820FFF7A6FBFFF710FCB9
:10362000200AFFF7A1FBFFF70BFCE0B2FFF79CFBC2
:10363000FFF706FCFFF7C4FB2920FFF795FBFFF718
:10364000FFFB00246E1E09E0B44201D0012000E01F
:103650000020FFF755FB3855641CE4B2AC42F3D3AD
:10366000BDE8F041FFF7CCBB2DE9F147494E0024FE
:103670004FF00A09307883B0401CC0B2B0FBF9F2B9
:1036800009FB1201444DA046307009B10A2863D2EB
:1036900048F24E1A012203A95046FFF7B5FF9DF8E4
:1036A0000C004FF00007010747D000F00F0106297A
:1036B00043D2FF2088408DF80400C04340F0C00092
:1036C00085F820004FF0010895F8201008FA04F062
:1036D000014225D031480422694630F81400FFF732
:1036E00093FF95F830009DF80110C0079DF8000089
:1036F00000EB012105EB44000AD0C1829DF80210C5
:103700009DF8032001EB0221C1F54871818107E09A
:1037100081819DF802109DF8032001EB0221C182F6
:10372000641CE4B2052CCFD3A9894FF0010819B964
:10373000E88A08B98DF80C7037709DF80C00010606
:103740000AD500F00F00062806D28DF80470012279
:1037500001A9504600F04AF89DF80C0000F08F00D7
:1037600080280ED195F82000010602D520F08000B7
:1037700005E04FF6FF71A981E98200F0E00085F8CD
:1037800020003078F02801D986F8009004B0404637
:10379000BDE8F087700000203C00002008F1000820
:1037A00008B500218DF800108DF801000E489DF835
:1037B0000020435C491C1A44C9B28DF80020B82986
:1037C000F5D3D0B2C043401C8DF80000B8220649A2
:1037D00048F2470000F00AF80222694648F2FF006A
:1037E00000F004F8002008BD50F000082DE9F04179
:1037F00015460E4604460027FFF7E2FA2820FFF799
:10380000B3FAFFF71DFB200AFFF7AEFAFFF718FB2C
:10381000E0B2FFF7A9FAFFF713FB002408E0305DE0
:10382000FFF7A2FAFFF70CFB070003D1641CE4B218
:10383000AC42F4D3FFF7E4FA3846BDE8F08100006B
:103840002DE9F041224D0020224F687069892E78C1
:103850004A1E84464FF0010E491C37F810306EB1F5
:1038600093421DDB07EB40035C88944218DB9C8885
:103870008C4215D8DB888B420DD911E08B420FD8D2
:1038800007EB40035C888C420AD89C88944207DB93
:10389000DB88934204DB401C288185F801E007E0C7
:1038A000401C80B2B0F5357FD7D35FEA0C0009D059
:1038B000288948B1B0F5967F08D907A0BDE8F04146
:1038C000FDF7D2BDA5F808C005A0F7E7BDE8F08177
:1038D00088000020A40200206572726F72210A0025
:1038E0006C6F636B206661696C6564210A0000007F
:1038F00010B5012001F0C6F90A490B4C4FF6FF70D4
:10390000088060894FF49B72A0F6FF704042C0F3BC
:103910000F1319460A2001F04FFA60890A386081B6
:1039200010BD00002C0000208800002010B50120F0
:1039300001F0A8F90A490B4C4FF6FF700880608926
:103940004FF49B72A0F6FF704042C0F30F1319466C
:103950000A2001F031FA60890A30608110BD000050
:103960002C0000208800002005490022087801284A
:1039700000D008B10A70704701200870704700003D
:10398000880000202DE9F05F3D4800240178FF29E0
:1039900073D10021017000F08FFEFFF751FF01206D
:1039A00001F070F9374D384E4FF6E070288070897D
:1039B0004FF49B72A0F6FF704042C0F30F131946FC
:1039C0000A2001F0F9F91F20288038212F4FDFF855
:1039D000C080F180AA4683464FF6FF7937F814007D
:1039E000C821A0F6FF70404200114843C11700EB08
:1039F0001160142202EB2020C1B2B170308904F1B1
:103A00000A05231838F81300C823A0F6FF704042B7
:103A100000115843C31700EB136002EB2020F07035
:103A2000A8B24A4601F0A2FAB0784A46401E81B2D6
:103A3000A8B201F09BFAB178A8B24A46491C01F03D
:103A400095FAAAF800B0A8B2F17801F001FAF0787E
:103A5000401E81B2A8B201F0FBF9F178A8B2491C6E
:103A600001F0F6F93089211838F8110027F8140010
:103A7000641CA4B2B4F5967FB0D3BDE8F09F0000FB
:103A8000880200202C00002088000020960B0020D7
:103A9000A402002010B5012001F0F4F843494FF4CE
:103AA00078404FF49B7408800A21E623224608469A
:103AB00001F0E8F92822E6230A21104601F07CF9FA
:103AC0004622E6230A21104601F076F96422E62315
:103AD0000A21104601F070F98222E6230A211046DD
:103AE00001F06AF99F22E6230A21104601F064F9E9
:103AF000A022E6230A21104601F05EF9A122E62366
:103B00000A21104601F058F9BE22E6230A21104688
:103B100001F052F9DC22E6230A21104601F04CF9AB
:103B2000FA22E6230A21104601F046F94FF48C7080
:103B3000E62302460A2101F03FF91E2322461946D8
:103B40000A2001F039F93C23224619460A2001F0E7
:103B500033F95A23224619460A2001F02DF977231A
:103B6000224619460A2001F027F9782322461946F1
:103B70000A2001F021F97923224619460A2001F092
:103B80001BF99623224619460A2001F015F9B423A1
:103B9000224619460A2001F00FF9D2232246BDE839
:103BA000104019460A2001F007B900002C0000203F
:103BB00010B5012001F066F806494FF47840E6237D
:103BC00008800A21BDE810404FF49B72084601F0BE
:103BD00059B900002C0000203EB5012001F052F838
:103BE0006B494FF478404FF4967408801421DC231D
:103BF0002246084601F046F95A22DC2314211046D9
:103C000001F0DAF8A022DC231421104601F0D4F8E8
:103C1000E622DC231421104601F0CEF8462322468A
:103C20001946142001F0C8F87823224619461420BA
:103C300001F0C2F8AA2322461946142001F0BCF86C
:103C40000C2054A1CDE9001001251023C8220295B3
:103C500005218C2006F00AF9102450A08DE83100CF
:103C60002346C8222821232006F000F94DA08DE824
:103C700031001023C8225A21232006F0F7F84BA068
:103C80008DE831001023C8228C21232006F0EEF8A5
:103C900048A08DE831001023C822BE21232006F061
:103CA000E5F846A08DE831001023C82228216920BC
:103CB00006F0DCF841A08DE831001023C8225A211B
:103CC000692006F0D3F83FA08DE831001023C82208
:103CD0008C21692006F0CAF83CA08DE83100102341
:103CE000C822BE21692006F0C1F80020CDE90040BD
:103CF00038480723AC210268692005F0F2FB36A0A2
:103D00008DE831001023C8222821AF2006F0AEF83C
:103D100033A08DE831001023C8225A21AF2006F0CD
:103D2000A5F831A08DE831001023C8228C21AF20E6
:103D300006F09CF82EA08DE831001023C822BE2189
:103D4000AF2006F093F82CA08DE831001023C82294
:103D50002821F52006F08AF829A08DE831001023EB
:103D6000C8225A21F52006F081F827A08DE83100FD
:103D70001023C8228C21F52006F078F824A08DE8C5
:103D800031001023C822BE21F52006F06FF83EBD99
:103D90002C000020CABEB2A8C6F70000CBF8202035
:103DA000B6A80000CBF8B6A8C0E00000B5E7C6BDD5
:103DB000C9FD0000B5E7C6BDBDB50000D7D42020C1
:103DC000B6AF0000CAB1BCE42B310000CAB1BCE4FC
:103DD0002D3100008C020020C9CF2020D2C6000067
:103DE000CFC22020D2C60000B7F9B6C82B310000E0
:103DF000B7F9B6C82D310000B5B2CEBB3000000017
:103E0000B5B2CEBB31000000B5B2CEBB320000006F
:103E1000B5B2CEBB330000002DE9F0416448006824
:103E200008F017FE6FF0080209F0BBFC08F0AAFBCF
:103E3000604C6149A06109F0B7FA09F069FA5F4D79
:103E4000608261792868FFF743F9E0612868617949
:103E50004000FFF73DF920622868617900EB4000DF
:103E6000FFF736F96062286861798000FFF730F962
:103E7000A0622868617900EB8000FFF729F9E06211
:103E80002868617900EB40004000FFF721F92063CA
:103E900028686179C0EBC000FFF71AF960632868F1
:103EA0006179C000FFF714F9A0632868617900EB1D
:103EB000C000FFF70DF90546E063E06908F0C9FDB1
:103EC0003F4E0022334608F0D7FD6FF009073A460F
:103ED00009F067FC08F056FB2064206A08F0B9FD81
:103EE0000022334608F0C8FD3A4609F05AFC08F0B3
:103EF00049FB6064606A08F0ACFD0022334608F0BC
:103F0000BBFD3A4609F04DFC08F03CFBA064A06AFA
:103F100008F09FFD0022334608F0AEFD3A4609F056
:103F200040FC08F02FFBE064E06A08F092FD0022FC
:103F3000334608F0A1FD3A4609F033FC08F022FBB5
:103F40002065206B08F085FD0022334608F094FDC3
:103F50003A4609F026FC08F015FB6065606B08F036
:103F600078FD0022334608F087FD3A4609F019FC37
:103F700008F008FBA065A06B08F06BFD002233463B
:103F800008F07AFD3A4609F00CFC08F0FBFAE0650F
:103F9000284608F05EFD0022334608F06DFD3A46E3
:103FA00009F0FFFB08F0EEFA2066BDE8F0810000A2
:103FB0008C020020880000200000F0410400002056
:103FC00000C8A94010B5012000F05CFE444C002060
:103FD0006168884794F8200000067DD5A0891538CF
:103FE00045281CD2E08A462819D9782805D2FFF73F
:103FF000BBFCA0891538452811D2E08A78280ED953
:10400000AA2805D2FFF792FCA0891538452806D2C8
:10401000E08AAA2803D9DC2801D2FFF769FCA0892D
:104020005B38452827D2E08A142824D9462805D2AF
:10403000FEF7CAFDA0895B3845281CD2E08A4628D5
:1040400019D9782805D2FEF7BFFDA0895B3845282D
:1040500011D2E08A78280ED9AA2805D2FEF708FCEA
:10406000A0895B38452806D2E08AAA2803D9DC2833
:1040700001D2FEF705FCA089E73845282FD2E08A57
:1040800014282CD9462806D20020FEF777FCA089F8
:10409000E738452823D2E08A462820D9782806D256
:1040A0000120FEF76BFCA089E738452817D2E08A8B
:1040B000782814D9AA2806D20220FEF75FFCA0892E
:1040C000E73845280BD2E08AAA2808D9DC2806D28E
:1040D000BDE81040032000E001E0FEF74FBC10BD3A
:1040E0003C0000202DE9F05F344800240178FF29CE
:1040F00062D10026067000F0DFFAFFF78DFE30492E
:1041000030484FF4806531F8142040F8342000EB3B
:10411000C402641CA4B25660AC42F4D32A462949B6
:104120002948FCF7AFF8284605F03AFCFFF774FE83
:104130000020264C264A274BC4264FF4967534F8A7
:104140002010C1F38D011182C42900D31682118A77
:1041500023F81010401C80B2A842F0D3DFF878900A
:104160001E4F002498464FF6FF7A4FF01F0BA9F818
:1041700000A037F8140004F10A05C0F1D20081B2A2
:104180004E46AAB2A8B2D22300F016FEA6F800B09E
:1041900038F81400AAB2C0F1D20081B24646A8B2E3
:1041A000D22300F009FE36F8140027F81400641C2E
:1041B000A4B2B4F5967FDAD3BDE8F09F8802002060
:1041C000A4020020C0120020C0220020C032002023
:1041D00088000020100E00202C0000206810002015
:1041E0002DE9FE43B84CB949B64860670878002805
:1041F0007ED000200870B649102601250880B5A0A1
:10420000CDE90006334650223E2102950A2005F0F2
:104210002DFE4FF6FF775623AF223E214B2000970D
:1042200000F0CCFF606C08F001FF02460B46ACA129
:10423000606FFDF725F9606FCDE900061023642259
:104240003E2102954B2005F011FEA8A0CDE9000605
:10425000102350225C2102950A2005F007FE7423EA
:10426000AF225C214B20009700F0A8FFE06C08F023
:10427000DDFE02460B469AA1606FFDF701F9606F03
:10428000CDE90006102364225C2102954B2005F045
:10429000EDFD96A0CDE90006102350227A2102956B
:1042A0000A2005F0E3FD9223AF227A214B200097EC
:1042B00000F084FF606D08F0B9FE02460B4688A14D
:1042C000606FFDF7DDF8606FCDE900061023642212
:1042D0007A2102954B2005F0C9FD87A0CDE90006A3
:1042E00010235022982102950A2005F0BFFD00E01E
:1042F000E5E0B023AF2298214B20009700F05EFF4D
:10430000E06D08F093FE02460B4675A1606FFDF765
:10431000B7F8606FCDE9000610236422982102955A
:104320004B2005F0A3FD77A0CDE900061023502215
:1043300020210295A52005F099FD4FF4A57838239A
:1043400042462021E620009700F038FF206C08F05C
:104350006DFE02460B4662A1606FFDF791F8606F3B
:10436000CDE900061023642220210295E62005F005
:104370007DFD67A0CDE90006102350223E21029565
:10438000A52005F073FD562342463E21E620009706
:1043900000F014FFA06C08F049FE02460B4650A145
:1043A000606FFDF76DF8606FCDE9000610236422A1
:1043B0003E210295E62005F059FD58A0CDE9000602
:1043C000102350225C210295A52005F04FFD742397
:1043D00042465C21E620009700F0F0FE206D08F0D8
:1043E00025FE02460B463EA1606FFDF749F8606F5F
:1043F000CDE90006102364225C210295E62005F039
:1044000035FD49A0CDE90006102350227A210295FE
:10441000A52005F02BFD922342467A21E620009745
:1044200000F0CCFEA06D08F001FE02460B462CA168
:10443000606FFDF725F8606FCDE900061023642258
:104440007A210295E62005F011FD3AA0CDE900069B
:104450001023502298210295A52005F007FDB023D6
:1044600042469821E620009700F0A8FE206E08F052
:10447000DDFD02460B461AA1606FFDF701F8606F83
:10448000CDE900061023642298210295E62005F06C
:10449000EDFCEA238222D2210A20009700F08EFE52
:1044A000628A27A1606FFCF7EBFF606FCDE9000621
:1044B00010237822D22102950A2005F0D7FCBDE80E
:1044C000FE830000EE0D0020880000207800002010
:1044D0002C000020B6FEB4CED0B3B2A8000000007D
:1044E00025362E3166206D5670000000CBC4B4CE48
:1044F000D0B3B2A800000000C1F9B4CED0B3B2A8C6
:1045000000000000BBF920202020B2A8000000001D
:10451000C8FDB4CED0B3B2A800000000CEE5B4CE42
:10452000D0B3B2A800000000C6DFB4CED0B3B2A8AA
:1045300000000000BEC5B4CED0B3B2A80000000099
:1045400025366420487A2F64697600002DE9FE4FF5
:10455000444C454942486067087800287DD04FF0B8
:10456000000A81F800A04149102641A0A1F800A04E
:10457000CDE90006012533463C22282102950F2073
:1045800005F074FC3CA0CDE9000610233C229821E4
:1045900002950F2005F06AFC4FF6FF794023AA220E
:1045A00028214620CDF8009000F008FE354F3868ED
:1045B00008F0E6FE08F03AFD02460B4632A1606FB5
:1045C000FCF75EFF606FCDE900061023642228210E
:1045D0000295462005F04AFCD4E9190109F038F8A3
:1045E0008346386808F035FA2A4A2B4B08F044FA1B
:1045F00007468846584608F019FD284A284B08F017
:104600003BFA3A46434608F027FC264A264B08F078
:1046100033FA07F0B7FF0746B023AA2298214620B5
:10462000CDF8009000F0CAFD384608F0FFFC0246C5
:104630000B461EA1606FFCF723FF606FCDE90006FB
:104640001023642298210295462005F00FFC19489A
:104650000178090601D580F800A0BDE8FE8F0000B2
:10466000EE0D002088000020780000202C000020A3
:10467000C6B52020C2CA0000B5E7C1F7B7E5B7E567
:10468000D6B500000400002025362E316620487A79
:1046900000000000CAFD0E45813E713F11184E46D4
:1046A00053457A3F4C37894160E5B03F25362E317E
:1046B00066204100770000202DE9F041344C0120B4
:1046C0000023344A2071850202EB400632F81010B4
:1046D00036F8026C3144490822F81010401C80B2B0
:1046E000A842F1D31088A081E0810020A68932F889
:1046F0001010B14200D3A181E689B14200D8E18116
:10470000401C80B2A842F1D3A089E589411B01EB8E
:10471000D17105EB610189B219444E08A68208F0F7
:1047200098F9DFF874800022434608F0A5F907F0F5
:1047300029FF6FF00B07394609F061F860662846DB
:1047400008F087F90022434608F096F907F01AFFAF
:10475000394609F054F8A066304608F07AF900228C
:10476000434608F089F907F00DFF394609F047F88C
:10477000E0660A48006808F06CF902460B46002023
:10478000074907F0E1FF07F0FDFE2067BDE8F08173
:1047900088000020A402002000C8A94004000020D6
:1047A00080842E4130B403460C46500700D00120CF
:1047B00000EBD2005043C1B218785B78812809D34E
:1047C000402B07D3FF2B05D0FF2803D07F2B0CD223
:1047D000403B0BE00022104603E0521C04F8010BA2
:1047E000D2B28A42F9D330BC7047413B8138C0B263
:1047F000C0EB4015DBB205EB801003EB40004843F3
:104800000C490C2A0BD0102A0ED0182AEBD1D1F863
:10481000191048220144204630BC05F00FBAD1F8E7
:10482000091018220144F6E7D1F8111020220144A2
:10483000F1E70000C0520020FEE7000070B50D4C0B
:104840000025C4F8B0510C48416821F47041416022
:10485000416841F440514160C4F8AC51022004F574
:10486000D67406F0A5FD01206060022006F0A0FDD0
:10487000656070BD000022420010014008B50121B2
:10488000102005F0D3F84FF4C050ADF80000102010
:104890008DF8030003208DF8020069460448FEF7F6
:1048A000A1FD04480121C0F8B011C0F8AC1108BD49
:1048B000001001400000224270B50D4C0026C4F8E3
:1048C000B0610C48416821F470414160416841F495
:1048D000405141600125C4F8AC51022004F5D67462
:1048E00006F066FD6560022006F062FD666070BD40
:1048F00000002242001001402DE9F0478146174890
:104900000024416821F470414160416841F4004154
:104910004160134E254627464FF00108C6F8B07196
:10492000022006F045FDC6F8B0816006040ED6F8F8
:104930002C0108B1641CE4B2012006F039FD6D1CA5
:10494000EDB2082DEAD3B9F1000F04D0FFF776FFDE
:104950002046BDE8F087FFF7AFFFF9E70010014000
:10496000000022422DE9F04105461448416821F437
:1049700070414160416841F440514160104E002750
:10498000C6F8B0713C464FF00108E809C6F8AC0122
:104990006806050E022006F00BFDC6F8B081022065
:1049A00006F006FDC6F8B071022006F001FD641C99
:1049B000E4B2082CE9D3BDE8F0810000001001400A
:1049C0000000224270B50D48416821F470414160F9
:1049D000416841F440514160094C0120C4F8AC01E8
:1049E000C4F8B001042004F5D67406F0E1FC0025FB
:1049F0002560042006F0DCFC656070BD00100140FD
:104A0000000022420E4810B5416821F47041416017
:104A1000416841F4405141600A4C0020C4F8B001A3
:104A2000C4F8AC01042004F5D67406F0C1FC0120E2
:104A300060602060BDE81040042006F0B9BC0000B2
:104A4000001001400000224270B513480024416864
:104A500021F470414160416841F4004141600F4DD3
:104A60000126C5F8AC61304606F0A2FCC5F8B0617D
:104A7000012006F09DFC07E0641CE4B2FA2C03D987
:104A8000FFF7C0FF012070BDD5F82C010028F3D13D
:104A9000C5F8B00170BD00000010014000002242C6
:104AA00070B506F04DFC4FF4A06004F0FBFD4FF430
:104AB000165006F0A5FD04F097FD00F0D5FB00F0C0
:104AC0002DF8144800688047FDF7F2FF1248FDF703
:104AD0006DFEFEF771FA4FF4FA60FEF79FFA41F6A9
:104AE0001F44214642F20F7005F090FB4FF6FF7510
:104AF0000021284605F00EFB4721284605F0A6FBBD
:104B0000214640F2F31005F063FCBDE8704006F06A
:104B100069BC00003C000020A086010038B50121DE
:104B2000142004F083FF01210B48FEF7A9FC4FF489
:104B30000040ADF8000048248DF80340694607485E
:104B4000FEF750FC2020ADF800008DF803406946C8
:104B50000348FEF747FC38BD000230000008014062
:104B6000001001402DE9F04101251D4C1D4EDFF8DC
:104B70007880EF0308B1657001E0607848B12021CA
:104B80003046FEF7A9FC58B139464046FEF7A4FC72
:104B900030B120213046FEF79FFC012816D01CE0E2
:104BA000012006F0EBFB00206070257020213046CC
:104BB000FEF792FC28B139464046FEF78DFC18B14D
:104BC0000BE00120BDE8F0810220FBE739464046BA
:104BD000FEF782FC012800D165700020F2E700009A
:104BE000300000200010014000080140C0F34511D2
:104BF000C20AC00200EB4110104480B270470000AE
:104C00002DE9F0431C4F0646002438887D88454333
:104C1000B888A0F5D041043902D1B87901280CD068
:104C20000021084604F0E8F904F0C2FC13494FF4EF
:104C300080774B15124A80201AE00020B8714FF09F
:104C40002A08A7F80A804FF02B09A7F80C90014614
:104C500004F0D2F90120B871A7F80A90A7F80C80E7
:104C6000E2E70F614B611660486108610B61641CEB
:104C7000AC42F6D3BDE8F083A40A00200010014046
:104C80000C0C01402DE9F04F4A492A232B24898836
:104C900045F2105A4FF4305B4FF4285E4FF44875DC
:104CA0004FF0F00C49F241394FF4A07745F210363D
:104CB0004FF4F07280B13F484FF00108494580F849
:104CC00006800780A0F802C001D0B1423ED12C2559
:104CD00005814381848157E036484FF000084945FB
:104CE00080F80680A0F800C0478006D0A1F5D04C1F
:104CF000BCF1040C01D0B1420CD12C2505814381BB
:104D0000A1F5D0438481043B01D0B14244D1078056
:104D1000428041E0514507D1A0F808B0A0F80AE070
:104D20004FF42C5181810EE0A1F5C856633E06D0A8
:104D30002221018120214181212181812CE02C210E
:104D40000181448183810280458025E0A1F5D04C1A
:104D5000BCF1040C09D051450BD1A0F808B0A0F863
:104D60000AE04FF42C53838121E02C2505814481F6
:104D700009E0A1F5C85CBCF1630C12D022230381C9
:104D80002123438120238381A1F5D043043B01D01B
:104D9000B14201D102804780BDE8F04F002003F00E
:104DA000B1BF4FF02C0CA0F808C04381848105806E
:104DB0004280E9E7A40A00202DE9FE4F0026A2EB7D
:104DC000000882465F1A701E35468946B8F1000F0A
:104DD00002DD4FF0010102E003D14FF0000101912B
:104DE00002E0C8F100080190002F02DD4FF0010041
:104DF00002E003D14FF00000009002E0C7F100078D
:104E000000904046B84501DD044600E03C46601C89
:104E10004FF0000B029015E01FFA89F11FFA8AF09B
:104E200000F016F846443D44A64202DD0199361BC7
:104E30008A44A54202DD00992D1B89440BF1010033
:104E40001FFA80FB02998B45E6DDBDE8FE8F00006E
:104E500000B504F0D1F804F0ABFB07484FF48071C3
:104E6000016141154161054A054B12881A60802293
:104E700042610261016100BD001001402C00002070
:104E80000C0C0140F0B51C4615460E4607460B4675
:104E9000FFF792FF3A46234631461046FFF78CFF54
:104EA00023462A4619463846FFF786FF2A462346F8
:104EB0003146BDE8F0401046FFF77EBF2DE9FC4FBC
:104EC00080460024154603200F46A0EB450649E026
:104ED000781B81B208EB040A01901FFA8AF0FFF7F1
:104EE000B7FF381B81B208EB050900901FFA89F063
:104EF000FFF7AEFF07EB040B1FFA8BF11FFA89F0E7
:104F0000FFF7A6FF07EB05091FFA89F11FFA8AF0E0
:104F1000FFF79EFFA8EB040A1FFA89F11FFA8AF037
:104F2000FFF796FFA8EB05091FFA8BF11FFA89F02E
:104F3000FFF78EFF019881B21FFA8AF0FFF788FF12
:104F4000009881B21FFA89F0FFF782FF641C002EDF
:104F500003DA06EB8406B61D04E0601B06EB800650
:104F60006D1E0A36AC42B3DDBDE8FC8F2DE9F74F6C
:104F700005468F4881B0DFF83CA2818802982F0A4D
:104F800000F0FF094FEA1028E8B200908848A1F528
:104F900013424FF4807B40894FF40076413A17D09A
:104FA000834CA1F5A642103A12D0B2F5007236D069
:104FB0002246A1F5C85793791288521B521E633FAF
:104FC00063D0A1F5D047043F7ED0012B7DD0D1E046
:104FD00004F0DCFA784CC4F810B06661CAF80070CE
:104FE0008025656125612661C4F810B0666100986E
:104FF000CAF800006561256126616D48808904F06A
:10500000C5FAC4F810B066615146CAF800806561FF
:1050100025612661C4F810B06661484631E004F0AD
:10502000B5FA654CC4F810B06661CAF80070802506
:105030006561256126615E484089401C80B204F0AC
:10504000A5FAC4F810B066610098CAF8000065615E
:10505000256126615648808904F098FAC4F810B09A
:105060006661CAF8008065612561266150488089C3
:10507000401C80B204F08AFAC4F810B06661484659
:10508000514608606561256171E003B995B204F08D
:105090007DFA494CC4F810B06661280ACAF80000CD
:1050A0008027676127612661C4F810B06661E9B2A4
:1050B000CAF80010676127612661C4F810B0666104
:1050C000CAF80000676101E024E052E02761266130
:1050D000C4F810B06661CAF80010676127612661E4
:1050E0003348808904F052FAC4F810B06661514622
:1050F000CAF80080676127612661C4F810B0666154
:10510000CAF80090676127612661C4F810B0666133
:10511000404621E0012B00D195B204F037FA264C2D
:10512000C4F810B06661290ACAF8001080276761C8
:1051300027612661C4F810B06661E9B2CAF80010B0
:105140006761276126611A48808904F01FFAC4F854
:1051500010B066614046514608606761276126616C
:10516000C4F810B06661C1F80090676127612661DC
:1051700007E095B2294604F021FAA089029904F0CB
:105180001DFA0D48C0F814B0466109490989CAF8EA
:1051900000108021416101610661C0F810B04661D4
:1051A000039BCAF80030416101610661BDE8FF8FD1
:1051B000A40A00200C0C0140001001402DE9F84F1A
:1051C000264D81469846A8880A9EA0F5D043043B08
:1051D00002D1A87901280AD0A2EB0900401C85B2AF
:1051E0000C461F4F4FF4007A4FF0800B32E02B88B3
:1051F0000846991A0024AC712A24A3EB09036C8198
:105200002B27491E5B1EAF8189B242469BB2009696
:10521000FFF7D4FF0120A8716F81AC81BDE8F88F42
:105220002146484603F0E8FE04F0C2F900204FF49E
:10523000807C53460B4A594608E0C7F810C07B6192
:105240001660796139613B61401C80B2A842F4D399
:10525000641CA4B24445E3D9E0E70000A40A00209E
:10526000001001400C0C01402DE9F84F01211920DC
:1052700004F0DCFB0121FE48FEF702F94FF4F8646C
:10528000ADF8004010208DF80300DFF8E88303201C
:105290008DF80200694645464046FEF7A3F82146D0
:1052A0002846FEF722F9F44D4FF6FF74ADF80040A2
:1052B00069462846FEF796F821462846FEF715F976
:1052C000322006F05BF80121002004F077F932204B
:1052D00006F054F8002003F0BFFCE84C49F24137D7
:1052E00046F60409A08045F2103A45F21055FF2811
:1052F00006D3A0F57F41FF3902D0B0F5134F70D12E
:10530000D32004F043F903F0A7FB03F0A5FB03F05F
:10531000A3FB4FF6FF7606EA0020A08003F09CFB7B
:10532000A1880843A080B8425BD0BF2004F02EF9CA
:1053300003F092FB03F090FB03F08EFB03F08CFB79
:1053400006EA0020A08003F087FBA1880843A08024
:10535000484546D0D42004F019F903F07DFB03F052
:105360007BFB03F079FB06EA0020A08003F074FBCE
:10537000A1880843A080504533D04FF45A4004F030
:1053800005F903F069FB4FF45B4004F0FFF803F00C
:1053900063FB06EA0020A0804FF45C4004F0F6F8BE
:1053A00003F05AFBA1880843A080B0F5004F7DD0E0
:1053B000A84216D0A12004F0E9F803F04DFBA0802C
:1053C00003F04AFB06EA0020A08003F045FBA18819
:1053D0000843A0F5AE41A080613902D141F66310C7
:1053E000A080A188A6A0FCF73FF8A088B8427DD194
:1053F000CF2004F0CBF8002004F0B6F8C12004F070
:10540000B3F8302004F0B0F8ED2004F0BFF86420C9
:1054100004F0AAF8032004F0A7F8122004F0A4F87E
:10542000812004F0A1F8E82004F0B0F8852004F011
:105430009BF8102004F098F87A2004F095F8CB201F
:1054400004F0A4F8392004F08FF82C2004F08CF834
:10545000002004F089F8342004F086F8022004F0DB
:1054600083F8F72004F092F8202004F07DF8EA2079
:1054700004F08CF8002004F077F8002004F074F8B1
:10548000C02004F083F81B2004F06EF8C12004F063
:105490007DF8012004F068F8C52004F077F830208A
:1054A00004F062F8302004F05FF800E0B3E0C720B9
:1054B00004F06CF8B72004F057F8362004F066F8D2
:1054C000482004F051F83A2004F060F8552004F028
:1054D0004BF8B12004F05AF8002004F045F81A20E7
:1054E00004F042F8B62004F051F800E095E00A20FC
:1054F00004F03AF8A22004F037F8F22004F046F85D
:10550000002004F031F8262004F040F8012004F0D7
:105510002BF8E02004F03AF80F2004F025F82A20B8
:1055200004F022F8282004F01FF8082004F01CF8EA
:105530000E2004F019F8082004F016F8542004F0A6
:1055400013F8A92004F010F8432004F00DF80A2005
:1055500004F00AF80F2004F007F8002004F004F823
:10556000002004F001F8002003F0FEFF002003F00B
:10557000FBFFE12004F00AF8002003F0F5FF1520FE
:1055800003F0F2FF172003F0EFFF072003F0ECFF1A
:10559000112003F0E9FF062003F0E6FF2B2003F0C3
:1055A000E3FF562003F0E0FF3C2003F0DDFF052081
:1055B00003F0DAFF102003F0D7FF0F2003F0D4FF31
:1055C0003F2003F0D1FF3F2003F0CEFF0F2003F078
:1055D000CBFF2B2003F0DAFF002003F0C5FF0020F3
:1055E00003F0C2FF012003F0BFFF3F2003F0BCFF28
:1055F0002A2003F0CBFF002003F0B6FF002003F0C9
:10560000B3FF002003F0B0FFEF2003F0ADFF112047
:1056100003F0BCFFB8E0A580E3E648457ED1112049
:1056200003F0B4FF142005F0A9FED02003F0AEFF74
:10563000072003F099FF422003F096FF1D2003F09E
:1056400093FFD12003F0A2FF002003F08DFF1A206A
:1056500003F08AFF092003F087FFD22003F096FFB2
:10566000012003F081FF222003F07EFFC0200FE025
:105670000002300000100140000C0140A40A00208C
:10568000204C43442049443A25780D0A000000008C
:1056900003F07CFF102003F067FF3B2003F064FF62
:1056A000002003F061FF022003F05EFF112003F0F1
:1056B0005BFFC52003F06AFF032003F055FFC820FD
:1056C00003F064FF002003F04FFF252003F04CFFA0
:1056D000212003F049FF052003F046FF002003F0DE
:1056E00043FF0A2003F040FF652003F03DFF252023
:1056F00003F03AFF772003F037FF502003F034FF28
:105700000F2003F031FF002003F02EFFF82003F0FC
:105710003DFF012003F028FFFE2000E03AE003F007
:1057200035FF002003F020FF022003F01DFF2020A2
:1057300003F02CFF362003F029FF082003F014FFAC
:105740003A2003F023FF552003F00EFF2B2003F037
:105750001DFF002003F008FF002003F005FF0120DB
:1057600003F002FF3F2003F0FFFE2A2003F00EFFAC
:10577000002003F0F9FE002003F0F6FE012003F004
:10578000F3FEDF2003F0F0FE782005F0F7FD29207E
:1057900001F0FBBE50457CD1ED2003F0F7FE012067
:1057A00003F0E2FEFE2003F0DFFEEE2003F0EEFE4B
:1057B000DE2003F0D9FE212003F0D6FEF12003F015
:1057C000E5FE012003F0D0FEDF2003F0DFFE102015
:1057D00003F0CAFEC42003F0D9FE8F2003F0C4FEFC
:1057E000C62003F0D3FE002003F0BEFEE22003F04B
:1057F000BBFEE22003F0B8FEE22003F0B5FEBF20BE
:1058000003F0C4FEAA2003F0AFFEB02003F0BEFEFA
:105810000D2003F0A9FE002003F0A6FE0D2003F0EA
:10582000A3FE002003F0A0FE112003F09DFE002047
:1058300003F09AFE192003F097FE002003F094FE77
:10584000212003F091FE002003F08EFE2D2003F0B6
:105850008BFE002003F088FE3D2003F085FE002033
:1058600003F082FE5D2003F07FFE002003F07CFE4B
:105870005D2003F079FE002003F076FEB12003F0F6
:1058800085FE802003F070FE002003F06DFE8B206B
:1058900000E0FCE303F068FE002003F065FE9620C4
:1058A00003F062FE002003F05FFEB22003F06EFE04
:1058B000002003F059FE002003F056FE022003F002
:1058C00053FE002003F050FE032003F04DFE0020A5
:1058D00003F04AFEB32003F059FE002003F044FE1B
:1058E000002003F041FE002003F03EFE002003F004
:1058F0003BFE002003F038FE002003F035FE0020C0
:1059000003F032FE002003F02FFE002003F02CFEF7
:10591000002003F029FE002003F026FE002003F003
:1059200023FE002003F020FE002003F01DFE0020D7
:1059300003F01AFE002003F017FE002003F014FE0F
:10594000002003F011FE002003F00EFE002003F003
:105950000BFE002003F008FE002003F005FE0020EF
:1059600003F002FE002003F0FFFDB42003F00EFE62
:105970008B2003F0F9FD002003F0F6FD962003F0E4
:10598000F3FD002003F0F0FDA12003F0EDFD002069
:1059900003F0EAFDB52003F0F9FD022003F0E4FD79
:1059A000002003F0E1FD032003F0DEFD002003F002
:1059B000DBFD042003F0D8FD002003F0D5FDB62068
:1059C00003F0E4FD002003F0CFFD002003F0CCFD48
:1059D000B72003F0DBFD002003F0C6FD002003F03C
:1059E000C3FD3F2003F0C0FD002003F0BDFD5E209D
:1059F00003F0BAFD002003F0B7FD642003F0B4FD0E
:105A0000002003F0B1FD8C2003F0AEFD002003F078
:105A1000ABFDAC2003F0A8FD002003F0A5FDDC20C9
:105A200003F0A2FD002003F09FFD702003F09CFD19
:105A3000002003F099FD902003F096FD002003F074
:105A400093FDEB2003F090FD002003F08DFDDC20A2
:105A500003F08AFD002003F087FDB82003F096FDD7
:105A6000002003F081FD002003F07EFD002003F004
:105A70007BFD002003F078FD002003F075FD002081
:105A800003F072FD002003F06FFD002003F06CFDB9
:105A9000BA2003F07BFD242003F066FD002003F014
:105AA00063FD002003F060FD002003F05DFDC120D8
:105AB00003F06CFD202003F057FD002003F054FD9F
:105AC000542003F051FD002003F04EFDFF2003F0B1
:105AD0004BFD002003F048FDC22003F057FD0A20D3
